{
  "_format": "hh-sol-artifact-1",
  "contractName": "Escrow",
  "sourceName": "contracts/Escrow.sol",
  "abi": [
    {
      "inputs": [],
      "name": "contractTotal",
      "outputs": [
        {
          "internalType": "uint256",
          "name": "",
          "type": "uint256"
        }
      ],
      "stateMutability": "view",
      "type": "function"
    },
    {
      "inputs": [],
      "name": "escrow_purchaser",
      "outputs": [
        {
          "internalType": "address",
          "name": "",
          "type": "address"
        }
      ],
      "stateMutability": "view",
      "type": "function"
    },
    {
      "inputs": [],
      "name": "escrow_seller",
      "outputs": [
        {
          "internalType": "address",
          "name": "",
          "type": "address"
        }
      ],
      "stateMutability": "view",
      "type": "function"
    },
    {
      "inputs": [],
      "name": "receivedTotal",
      "outputs": [
        {
          "internalType": "uint256",
          "name": "",
          "type": "uint256"
        }
      ],
      "stateMutability": "view",
      "type": "function"
    }
  ],
  "bytecode": "0x608060405234801561001057600080fd5b5060016000819055506101e7806100286000396000f3fe608060405234801561001057600080fd5b506004361061004c5760003560e01c8063089aa8a2146100515780630a61e2d91461006f57806316713b371461008d578063ce0c722a146100ab575b600080fd5b6100596100c9565b604051610066919061013f565b60405180910390f35b6100776100ef565b604051610084919061015a565b60405180910390f35b6100956100f5565b6040516100a2919061015a565b60405180910390f35b6100b36100fb565b6040516100c0919061013f565b60405180910390f35b600160009054906101000a900473ffffffffffffffffffffffffffffffffffffffff1681565b60035481565b60045481565b600260009054906101000a900473ffffffffffffffffffffffffffffffffffffffff1681565b61012a81610175565b82525050565b610139816101a7565b82525050565b60006020820190506101546000830184610121565b92915050565b600060208201905061016f6000830184610130565b92915050565b600061018082610187565b9050919050565b600073ffffffffffffffffffffffffffffffffffffffff82169050919050565b600081905091905056fea26469706673582212201d90f0f491ecff50f9b0cd73a8dccb583d4b445aa665bb39d820092b5889f9cd64736f6c63430008070033",
  "linkReferences": {},
  "deployedLinkReferences": {}
}